{
  "_format": "hh-sol-artifact-1",
  "contractName": "Auction",
  "sourceName": "contracts/Auction.sol",
  "abi": [
    {
      "anonymous": false,
      "inputs": [
        {
          "indexed": true,
          "internalType": "uint256",
          "name": "auctionId",
          "type": "uint256"
        },
        {
          "indexed": true,
          "internalType": "address",
          "name": "seller",
          "type": "address"
        },
        {
          "indexed": true,
          "internalType": "address",
          "name": "nftContract",
          "type": "address"
        },
        {
          "indexed": false,
          "internalType": "uint256",
          "name": "tokenId",
          "type": "uint256"
        },
        {
          "indexed": false,
          "internalType": "uint256",
          "name": "startPrice",
          "type": "uint256"
        },
        {
          "indexed": false,
          "internalType": "uint256",
          "name": "endTimestamp",
          "type": "uint256"
        }
      ],
      "name": "AuctionCreated",
      "type": "event"
    },
    {
      "anonymous": false,
      "inputs": [
        {
          "indexed": true,
          "internalType": "uint256",
          "name": "auctionId",
          "type": "uint256"
        },
        {
          "indexed": true,
          "internalType": "address",
          "name": "winner",
          "type": "address"
        },
        {
          "indexed": false,
          "internalType": "uint256",
          "name": "highestBid",
          "type": "uint256"
        }
      ],
      "name": "AuctionEnded",
      "type": "event"
    },
    {
      "anonymous": false,
      "inputs": [
        {
          "indexed": true,
          "internalType": "uint256",
          "name": "auctionId",
          "type": "uint256"
        },
        {
          "indexed": true,
          "internalType": "address",
          "name": "bidder",
          "type": "address"
        },
        {
          "indexed": false,
          "internalType": "uint256",
          "name": "amount",
          "type": "uint256"
        }
      ],
      "name": "BidPlaced",
      "type": "event"
    },
    {
      "inputs": [
        {
          "internalType": "uint256",
          "name": "",
          "type": "uint256"
        }
      ],
      "name": "auctions",
      "outputs": [
        {
          "internalType": "uint256",
          "name": "auctionId",
          "type": "uint256"
        },
        {
          "internalType": "address",
          "name": "seller",
          "type": "address"
        },
        {
          "internalType": "contract IERC721",
          "name": "nftContract",
          "type": "address"
        },
        {
          "internalType": "uint256",
          "name": "tokenId",
          "type": "uint256"
        },
        {
          "internalType": "uint256",
          "name": "startPrice",
          "type": "uint256"
        },
        {
          "internalType": "uint256",
          "name": "endTimestamp",
          "type": "uint256"
        },
        {
          "internalType": "uint256",
          "name": "highestBid",
          "type": "uint256"
        },
        {
          "internalType": "address",
          "name": "highestBidder",
          "type": "address"
        },
        {
          "internalType": "uint8",
          "name": "highestBidCurrency",
          "type": "uint8"
        },
        {
          "internalType": "address",
          "name": "erc20TokenAddress",
          "type": "address"
        },
        {
          "internalType": "uint256",
          "name": "highestBidInUsd",
          "type": "uint256"
        },
        {
          "internalType": "bool",
          "name": "ended",
          "type": "bool"
        }
      ],
      "stateMutability": "view",
      "type": "function"
    },
    {
      "inputs": [
        {
          "internalType": "contract IERC721",
          "name": "_nftContract",
          "type": "address"
        },
        {
          "internalType": "uint256",
          "name": "_tokenId",
          "type": "uint256"
        },
        {
          "internalType": "uint256",
          "name": "_startPrice",
          "type": "uint256"
        },
        {
          "internalType": "uint8",
          "name": "_startPriceCurrency",
          "type": "uint8"
        },
        {
          "internalType": "address",
          "name": "_erc20TokenAddress",
          "type": "address"
        },
        {
          "internalType": "uint256",
          "name": "_duration",
          "type": "uint256"
        }
      ],
      "name": "createAuction",
      "outputs": [],
      "stateMutability": "nonpayable",
      "type": "function"
    },
    {
      "inputs": [
        {
          "internalType": "uint256",
          "name": "_auctionId",
          "type": "uint256"
        }
      ],
      "name": "endAuction",
      "outputs": [],
      "stateMutability": "nonpayable",
      "type": "function"
    },
    {
      "inputs": [],
      "name": "ethUsdPriceFeed",
      "outputs": [
        {
          "internalType": "contract AggregatorV3Interface",
          "name": "",
          "type": "address"
        }
      ],
      "stateMutability": "view",
      "type": "function"
    },
    {
      "inputs": [
        {
          "internalType": "address",
          "name": "_tokenAddress",
          "type": "address"
        }
      ],
      "name": "getLatestPrice",
      "outputs": [
        {
          "internalType": "int256",
          "name": "",
          "type": "int256"
        }
      ],
      "stateMutability": "view",
      "type": "function"
    },
    {
      "inputs": [
        {
          "internalType": "uint256",
          "name": "_auctionId",
          "type": "uint256"
        }
      ],
      "name": "placeBid",
      "outputs": [],
      "stateMutability": "payable",
      "type": "function"
    },
    {
      "inputs": [
        {
          "internalType": "uint256",
          "name": "_auctionId",
          "type": "uint256"
        },
        {
          "internalType": "uint256",
          "name": "_amount",
          "type": "uint256"
        },
        {
          "internalType": "address",
          "name": "_erc20TokenAddress",
          "type": "address"
        }
      ],
      "name": "placeBidERC20",
      "outputs": [],
      "stateMutability": "nonpayable",
      "type": "function"
    },
    {
      "inputs": [
        {
          "internalType": "address",
          "name": "",
          "type": "address"
        }
      ],
      "name": "priceFeeds",
      "outputs": [
        {
          "internalType": "contract AggregatorV3Interface",
          "name": "",
          "type": "address"
        }
      ],
      "stateMutability": "view",
      "type": "function"
    },
    {
      "inputs": [
        {
          "internalType": "address",
          "name": "_priceFeedAddress",
          "type": "address"
        }
      ],
      "name": "setEthUsdPriceFeed",
      "outputs": [],
      "stateMutability": "nonpayable",
      "type": "function"
    },
    {
      "inputs": [
        {
          "internalType": "address",
          "name": "_tokenAddress",
          "type": "address"
        },
        {
          "internalType": "address",
          "name": "_priceFeedAddress",
          "type": "address"
        }
      ],
      "name": "setPriceFeed",
      "outputs": [],
      "stateMutability": "nonpayable",
      "type": "function"
    }
  ],
  "bytecode": "0x608060405234801561001057600080fd5b506125fd806100206000396000f3fe6080604052600436106100915760003560e01c80639979ef45116100595780639979ef45146101985780639dcb511a146101b4578063ad183739146101f1578063b9a2de3a1461021a578063e293dcbf1461024357610091565b806316345f1814610096578063407f03f7146100d357806342f6fb29146100fc578063571a26a01461012757806376e112861461016f575b600080fd5b3480156100a257600080fd5b506100bd60048036038101906100b89190611a04565b61026c565b6040516100ca9190611a4a565b60405180910390f35b3480156100df57600080fd5b506100fa60048036038101906100f59190611b12565b610351565b005b34801561010857600080fd5b506101116107d7565b60405161011e9190611bfe565b60405180910390f35b34801561013357600080fd5b5061014e60048036038101906101499190611c19565b6107fd565b6040516101669c9b9a99989796959493929190611caf565b60405180910390f35b34801561017b57600080fd5b5061019660048036038101906101919190611d69565b6108f7565b005b6101b260048036038101906101ad9190611c19565b610978565b005b3480156101c057600080fd5b506101db60048036038101906101d69190611a04565b610d85565b6040516101e89190611bfe565b60405180910390f35b3480156101fd57600080fd5b5061021860048036038101906102139190611da9565b610db8565b005b34801561022657600080fd5b50610241600480360381019061023c9190611c19565b6112b5565b005b34801561024f57600080fd5b5061026a60048036038101906102659190611a04565b611774565b005b6000806000808473ffffffffffffffffffffffffffffffffffffffff1673ffffffffffffffffffffffffffffffffffffffff16815260200190815260200160002060009054906101000a900473ffffffffffffffffffffffffffffffffffffffff16905060008173ffffffffffffffffffffffffffffffffffffffff1663feaf968c6040518163ffffffff1660e01b815260040160a060405180830381865afa15801561031d573d6000803e3d6000fd5b505050506040513d601f19601f820116820180604052508101906103419190611e7f565b5050509150508092505050919050565b60008411610394576040517f08c379a000000000000000000000000000000000000000000000000000000000815260040161038b90611f7d565b60405180910390fd5b600081116103d7576040517f08c379a00000000000000000000000000000000000000000000000000000000081526004016103ce90611fe9565b60405180910390fd5b60018360ff160361045257600073ffffffffffffffffffffffffffffffffffffffff168273ffffffffffffffffffffffffffffffffffffffff1603610451576040517f08c379a00000000000000000000000000000000000000000000000000000000081526004016104489061207b565b60405180910390fd5b5b8573ffffffffffffffffffffffffffffffffffffffff166323b872dd3330886040518463ffffffff1660e01b815260040161048f9392919061209b565b600060405180830381600087803b1580156104a957600080fd5b505af11580156104bd573d6000803e3d6000fd5b50505050600360008154809291906104d490612101565b9190505550600060035490506040518061018001604052808281526020013373ffffffffffffffffffffffffffffffffffffffff1681526020018873ffffffffffffffffffffffffffffffffffffffff16815260200187815260200186815260200183426105429190612149565b8152602001868152602001600073ffffffffffffffffffffffffffffffffffffffff1681526020018560ff1681526020018473ffffffffffffffffffffffffffffffffffffffff16815260200161059a8588886117b8565b815260200160001515815250600260008381526020019081526020016000206000820151816000015560208201518160010160006101000a81548173ffffffffffffffffffffffffffffffffffffffff021916908373ffffffffffffffffffffffffffffffffffffffff16021790555060408201518160020160006101000a81548173ffffffffffffffffffffffffffffffffffffffff021916908373ffffffffffffffffffffffffffffffffffffffff160217905550606082015181600301556080820151816004015560a0820151816005015560c0820151816006015560e08201518160070160006101000a81548173ffffffffffffffffffffffffffffffffffffffff021916908373ffffffffffffffffffffffffffffffffffffffff1602179055506101008201518160070160146101000a81548160ff021916908360ff1602179055506101208201518160080160006101000a81548173ffffffffffffffffffffffffffffffffffffffff021916908373ffffffffffffffffffffffffffffffffffffffff160217905550610140820151816009015561016082015181600a0160006101000a81548160ff0219169083151502179055509050508673ffffffffffffffffffffffffffffffffffffffff163373ffffffffffffffffffffffffffffffffffffffff16827f06b9e486c68303eb64052e0493f906f3d93a1b7149b6b8dcff221aebd16c3513898987426107b79190612149565b6040516107c69392919061217d565b60405180910390a450505050505050565b600160009054906101000a900473ffffffffffffffffffffffffffffffffffffffff1681565b60026020528060005260406000206000915090508060000154908060010160009054906101000a900473ffffffffffffffffffffffffffffffffffffffff16908060020160009054906101000a900473ffffffffffffffffffffffffffffffffffffffff16908060030154908060040154908060050154908060060154908060070160009054906101000a900473ffffffffffffffffffffffffffffffffffffffff16908060070160149054906101000a900460ff16908060080160009054906101000a900473ffffffffffffffffffffffffffffffffffffffff169080600901549080600a0160009054906101000a900460ff1690508c565b806000808473ffffffffffffffffffffffffffffffffffffffff1673ffffffffffffffffffffffffffffffffffffffff16815260200190815260200160002060006101000a81548173ffffffffffffffffffffffffffffffffffffffff021916908373ffffffffffffffffffffffffffffffffffffffff1602179055505050565b600060026000838152602001908152602001600020905060008160000154036109d6576040517f08c379a00000000000000000000000000000000000000000000000000000000081526004016109cd90612200565b60405180910390fd5b80600a0160009054906101000a900460ff1615610a28576040517f08c379a0000000000000000000000000000000000000000000000000000000008152600401610a1f9061226c565b60405180910390fd5b80600501544210610a6e576040517f08c379a0000000000000000000000000000000000000000000000000000000008152600401610a659061226c565b60405180910390fd5b6000610a7d60003460006117b8565b905081600901548111610ac5576040517f08c379a0000000000000000000000000000000000000000000000000000000008152600401610abc906122fe565b60405180910390fd5b600073ffffffffffffffffffffffffffffffffffffffff168260070160009054906101000a900473ffffffffffffffffffffffffffffffffffffffff1673ffffffffffffffffffffffffffffffffffffffff1614610c7a5760008260070160149054906101000a900460ff1660ff1603610bad578160070160009054906101000a900473ffffffffffffffffffffffffffffffffffffffff1673ffffffffffffffffffffffffffffffffffffffff166108fc83600601549081150290604051600060405180830381858888f19350505050158015610ba7573d6000803e3d6000fd5b50610c79565b8160080160009054906101000a900473ffffffffffffffffffffffffffffffffffffffff1673ffffffffffffffffffffffffffffffffffffffff1663a9059cbb8360070160009054906101000a900473ffffffffffffffffffffffffffffffffffffffff1684600601546040518363ffffffff1660e01b8152600401610c3492919061231e565b6020604051808303816000875af1158015610c53573d6000803e3d6000fd5b505050506040513d601f19601f82011682018060405250810190610c779190612373565b505b5b348260060181905550338260070160006101000a81548173ffffffffffffffffffffffffffffffffffffffff021916908373ffffffffffffffffffffffffffffffffffffffff16021790555060008260070160146101000a81548160ff021916908360ff16021790555060008260080160006101000a81548173ffffffffffffffffffffffffffffffffffffffff021916908373ffffffffffffffffffffffffffffffffffffffff1602179055508082600901819055503373ffffffffffffffffffffffffffffffffffffffff16837f0e54eff26401bf69b81b26f60bd85ef47f5d85275c1d268d84f68d6897431c4734604051610d7891906123a0565b60405180910390a3505050565b60006020528060005260406000206000915054906101000a900473ffffffffffffffffffffffffffffffffffffffff1681565b60006002600085815260200190815260200160002090506000816000015403610e16576040517f08c379a0000000000000000000000000000000000000000000000000000000008152600401610e0d90612200565b60405180910390fd5b80600a0160009054906101000a900460ff1615610e68576040517f08c379a0000000000000000000000000000000000000000000000000000000008152600401610e5f9061226c565b60405180910390fd5b80600501544210610eae576040517f08c379a0000000000000000000000000000000000000000000000000000000008152600401610ea59061226c565b60405180910390fd5b600073ffffffffffffffffffffffffffffffffffffffff168273ffffffffffffffffffffffffffffffffffffffff1603610f1d576040517f08c379a0000000000000000000000000000000000000000000000000000000008152600401610f149061207b565b60405180910390fd5b6000610f2b838560016117b8565b905081600901548111610f73576040517f08c379a0000000000000000000000000000000000000000000000000000000008152600401610f6a906122fe565b60405180910390fd5b8273ffffffffffffffffffffffffffffffffffffffff166323b872dd3330876040518463ffffffff1660e01b8152600401610fb09392919061209b565b6020604051808303816000875af1158015610fcf573d6000803e3d6000fd5b505050506040513d601f19601f82011682018060405250810190610ff39190612373565b50600073ffffffffffffffffffffffffffffffffffffffff168260070160009054906101000a900473ffffffffffffffffffffffffffffffffffffffff1673ffffffffffffffffffffffffffffffffffffffff16146111a95760008260070160149054906101000a900460ff1660ff16036110dc578160070160009054906101000a900473ffffffffffffffffffffffffffffffffffffffff1673ffffffffffffffffffffffffffffffffffffffff166108fc83600601549081150290604051600060405180830381858888f193505050501580156110d6573d6000803e3d6000fd5b506111a8565b8160080160009054906101000a900473ffffffffffffffffffffffffffffffffffffffff1673ffffffffffffffffffffffffffffffffffffffff1663a9059cbb8360070160009054906101000a900473ffffffffffffffffffffffffffffffffffffffff1684600601546040518363ffffffff1660e01b815260040161116392919061231e565b6020604051808303816000875af1158015611182573d6000803e3d6000fd5b505050506040513d601f19601f820116820180604052508101906111a69190612373565b505b5b838260060181905550338260070160006101000a81548173ffffffffffffffffffffffffffffffffffffffff021916908373ffffffffffffffffffffffffffffffffffffffff16021790555060018260070160146101000a81548160ff021916908360ff160217905550828260080160006101000a81548173ffffffffffffffffffffffffffffffffffffffff021916908373ffffffffffffffffffffffffffffffffffffffff1602179055508082600901819055503373ffffffffffffffffffffffffffffffffffffffff16857f0e54eff26401bf69b81b26f60bd85ef47f5d85275c1d268d84f68d6897431c47866040516112a691906123a0565b60405180910390a35050505050565b60006002600083815260200190815260200160002090506000816000015403611313576040517f08c379a000000000000000000000000000000000000000000000000000000000815260040161130a90612200565b60405180910390fd5b80600a0160009054906101000a900460ff1615611365576040517f08c379a000000000000000000000000000000000000000000000000000000000815260040161135c9061226c565b60405180910390fd5b80600501544210156113ac576040517f08c379a00000000000000000000000000000000000000000000000000000000081526004016113a390612407565b60405180910390fd5b600181600a0160006101000a81548160ff021916908315150217905550600073ffffffffffffffffffffffffffffffffffffffff168160070160009054906101000a900473ffffffffffffffffffffffffffffffffffffffff1673ffffffffffffffffffffffffffffffffffffffff161461163d578060020160009054906101000a900473ffffffffffffffffffffffffffffffffffffffff1673ffffffffffffffffffffffffffffffffffffffff166323b872dd308360070160009054906101000a900473ffffffffffffffffffffffffffffffffffffffff1684600301546040518463ffffffff1660e01b81526004016114aa9392919061209b565b600060405180830381600087803b1580156114c457600080fd5b505af11580156114d8573d6000803e3d6000fd5b5050505060008160070160149054906101000a900460ff1660ff160361156c578060010160009054906101000a900473ffffffffffffffffffffffffffffffffffffffff1673ffffffffffffffffffffffffffffffffffffffff166108fc82600601549081150290604051600060405180830381858888f19350505050158015611566573d6000803e3d6000fd5b50611638565b8060080160009054906101000a900473ffffffffffffffffffffffffffffffffffffffff1673ffffffffffffffffffffffffffffffffffffffff1663a9059cbb8260010160009054906101000a900473ffffffffffffffffffffffffffffffffffffffff1683600601546040518363ffffffff1660e01b81526004016115f392919061231e565b6020604051808303816000875af1158015611612573d6000803e3d6000fd5b505050506040513d601f19601f820116820180604052508101906116369190612373565b505b6116f9565b8060020160009054906101000a900473ffffffffffffffffffffffffffffffffffffffff1673ffffffffffffffffffffffffffffffffffffffff166323b872dd308360010160009054906101000a900473ffffffffffffffffffffffffffffffffffffffff1684600301546040518463ffffffff1660e01b81526004016116c69392919061209b565b600060405180830381600087803b1580156116e057600080fd5b505af11580156116f4573d6000803e3d6000fd5b505050505b8060070160009054906101000a900473ffffffffffffffffffffffffffffffffffffffff1673ffffffffffffffffffffffffffffffffffffffff16827fd2aa34a4fdbbc6dff6a3e56f46e0f3ae2a31d7785ff3487aa5c95c642acea501836006015460405161176891906123a0565b60405180910390a35050565b80600160006101000a81548173ffffffffffffffffffffffffffffffffffffffff021916908373ffffffffffffffffffffffffffffffffffffffff16021790555050565b60008060008360ff16036117f057600160009054906101000a900473ffffffffffffffffffffffffffffffffffffffff169050611852565b6000808673ffffffffffffffffffffffffffffffffffffffff1673ffffffffffffffffffffffffffffffffffffffff16815260200190815260200160002060009054906101000a900473ffffffffffffffffffffffffffffffffffffffff1690505b600073ffffffffffffffffffffffffffffffffffffffff168173ffffffffffffffffffffffffffffffffffffffff16036118c1576040517f08c379a00000000000000000000000000000000000000000000000000000000081526004016118b890612473565b60405180910390fd5b60008173ffffffffffffffffffffffffffffffffffffffff1663feaf968c6040518163ffffffff1660e01b815260040160a060405180830381865afa15801561190e573d6000803e3d6000fd5b505050506040513d601f19601f820116820180604052508101906119329190611e7f565b5050509150506000811361197b576040517f08c379a000000000000000000000000000000000000000000000000000000000815260040161197290612505565b60405180910390fd5b6305f5e100818661198c9190612525565b6119969190612596565b925050509392505050565b600080fd5b600073ffffffffffffffffffffffffffffffffffffffff82169050919050565b60006119d1826119a6565b9050919050565b6119e1816119c6565b81146119ec57600080fd5b50565b6000813590506119fe816119d8565b92915050565b600060208284031215611a1a57611a196119a1565b5b6000611a28848285016119ef565b91505092915050565b6000819050919050565b611a4481611a31565b82525050565b6000602082019050611a5f6000830184611a3b565b92915050565b6000611a70826119c6565b9050919050565b611a8081611a65565b8114611a8b57600080fd5b50565b600081359050611a9d81611a77565b92915050565b6000819050919050565b611ab681611aa3565b8114611ac157600080fd5b50565b600081359050611ad381611aad565b92915050565b600060ff82169050919050565b611aef81611ad9565b8114611afa57600080fd5b50565b600081359050611b0c81611ae6565b92915050565b60008060008060008060c08789031215611b2f57611b2e6119a1565b5b6000611b3d89828a01611a8e565b9650506020611b4e89828a01611ac4565b9550506040611b5f89828a01611ac4565b9450506060611b7089828a01611afd565b9350506080611b8189828a016119ef565b92505060a0611b9289828a01611ac4565b9150509295509295509295565b6000819050919050565b6000611bc4611bbf611bba846119a6565b611b9f565b6119a6565b9050919050565b6000611bd682611ba9565b9050919050565b6000611be882611bcb565b9050919050565b611bf881611bdd565b82525050565b6000602082019050611c136000830184611bef565b92915050565b600060208284031215611c2f57611c2e6119a1565b5b6000611c3d84828501611ac4565b91505092915050565b611c4f81611aa3565b82525050565b611c5e816119c6565b82525050565b6000611c6f82611bcb565b9050919050565b611c7f81611c64565b82525050565b611c8e81611ad9565b82525050565b60008115159050919050565b611ca981611c94565b82525050565b600061018082019050611cc5600083018f611c46565b611cd2602083018e611c55565b611cdf604083018d611c76565b611cec606083018c611c46565b611cf9608083018b611c46565b611d0660a083018a611c46565b611d1360c0830189611c46565b611d2060e0830188611c55565b611d2e610100830187611c85565b611d3c610120830186611c55565b611d4a610140830185611c46565b611d58610160830184611ca0565b9d9c50505050505050505050505050565b60008060408385031215611d8057611d7f6119a1565b5b6000611d8e858286016119ef565b9250506020611d9f858286016119ef565b9150509250929050565b600080600060608486031215611dc257611dc16119a1565b5b6000611dd086828701611ac4565b9350506020611de186828701611ac4565b9250506040611df2868287016119ef565b9150509250925092565b600069ffffffffffffffffffff82169050919050565b611e1b81611dfc565b8114611e2657600080fd5b50565b600081519050611e3881611e12565b92915050565b611e4781611a31565b8114611e5257600080fd5b50565b600081519050611e6481611e3e565b92915050565b600081519050611e7981611aad565b92915050565b600080600080600060a08688031215611e9b57611e9a6119a1565b5b6000611ea988828901611e29565b9550506020611eba88828901611e55565b9450506040611ecb88828901611e6a565b9350506060611edc88828901611e6a565b9250506080611eed88828901611e29565b9150509295509295909350565b600082825260208201905092915050565b7f5374617274207072696365206d7573742062652067726561746572207468616e60008201527f2030000000000000000000000000000000000000000000000000000000000000602082015250565b6000611f67602283611efa565b9150611f7282611f0b565b604082019050919050565b60006020820190508181036000830152611f9681611f5a565b9050919050565b7f4475726174696f6e206d7573742062652067726561746572207468616e203000600082015250565b6000611fd3601f83611efa565b9150611fde82611f9d565b602082019050919050565b6000602082019050818103600083015261200281611fc6565b9050919050565b7f455243323020746f6b656e20616464726573732063616e6e6f74206265207a6560008201527f726f000000000000000000000000000000000000000000000000000000000000602082015250565b6000612065602283611efa565b915061207082612009565b604082019050919050565b6000602082019050818103600083015261209481612058565b9050919050565b60006060820190506120b06000830186611c55565b6120bd6020830185611c55565b6120ca6040830184611c46565b949350505050565b7f4e487b7100000000000000000000000000000000000000000000000000000000600052601160045260246000fd5b600061210c82611aa3565b91507fffffffffffffffffffffffffffffffffffffffffffffffffffffffffffffffff820361213e5761213d6120d2565b5b600182019050919050565b600061215482611aa3565b915061215f83611aa3565b9250828201905080821115612177576121766120d2565b5b92915050565b60006060820190506121926000830186611c46565b61219f6020830185611c46565b6121ac6040830184611c46565b949350505050565b7f41756374696f6e20646f6573206e6f7420657869737400000000000000000000600082015250565b60006121ea601683611efa565b91506121f5826121b4565b602082019050919050565b60006020820190508181036000830152612219816121dd565b9050919050565b7f41756374696f6e2068617320656e646564000000000000000000000000000000600082015250565b6000612256601183611efa565b915061226182612220565b602082019050919050565b6000602082019050818103600083015261228581612249565b9050919050565b7f426964206d75737420626520686967686572207468616e2063757272656e742060008201527f686967686573742062696420696e205553440000000000000000000000000000602082015250565b60006122e8603283611efa565b91506122f38261228c565b604082019050919050565b60006020820190508181036000830152612317816122db565b9050919050565b60006040820190506123336000830185611c55565b6123406020830184611c46565b9392505050565b61235081611c94565b811461235b57600080fd5b50565b60008151905061236d81612347565b92915050565b600060208284031215612389576123886119a1565b5b60006123978482850161235e565b91505092915050565b60006020820190506123b56000830184611c46565b92915050565b7f41756374696f6e20686173206e6f7420656e6465642079657400000000000000600082015250565b60006123f1601983611efa565b91506123fc826123bb565b602082019050919050565b60006020820190508181036000830152612420816123e4565b9050919050565b7f50726963652066656564206e6f7420617661696c61626c650000000000000000600082015250565b600061245d601883611efa565b915061246882612427565b602082019050919050565b6000602082019050818103600083015261248c81612450565b9050919050565b7f507269636520666565642072657475726e656420696e76616c69642076616c7560008201527f6500000000000000000000000000000000000000000000000000000000000000602082015250565b60006124ef602183611efa565b91506124fa82612493565b604082019050919050565b6000602082019050818103600083015261251e816124e2565b9050919050565b600061253082611aa3565b915061253b83611aa3565b925082820261254981611aa3565b915082820484148315176125605761255f6120d2565b5b5092915050565b7f4e487b7100000000000000000000000000000000000000000000000000000000600052601260045260246000fd5b60006125a182611aa3565b91506125ac83611aa3565b9250826125bc576125bb612567565b5b82820490509291505056fea26469706673582212201b38ef5870ed5e803446cb241d18c8991a6c437fd63d0efd60f9a8c45bac7db764736f6c63430008180033",
  "linkReferences": {},
  "deployedLinkReferences": {}
}