{
  "_format": "hh-sol-artifact-1",
  "contractName": "AuctionUpgradeable",
  "sourceName": "contracts/AuctionUpgradeable.sol",
  "abi": [
    {
      "inputs": [],
      "stateMutability": "nonpayable",
      "type": "constructor"
    },
    {
      "inputs": [
        {
          "internalType": "address",
          "name": "target",
          "type": "address"
        }
      ],
      "name": "AddressEmptyCode",
      "type": "error"
    },
    {
      "inputs": [
        {
          "internalType": "address",
          "name": "implementation",
          "type": "address"
        }
      ],
      "name": "ERC1967InvalidImplementation",
      "type": "error"
    },
    {
      "inputs": [],
      "name": "ERC1967NonPayable",
      "type": "error"
    },
    {
      "inputs": [],
      "name": "FailedCall",
      "type": "error"
    },
    {
      "inputs": [],
      "name": "InvalidInitialization",
      "type": "error"
    },
    {
      "inputs": [],
      "name": "NotInitializing",
      "type": "error"
    },
    {
      "inputs": [
        {
          "internalType": "address",
          "name": "owner",
          "type": "address"
        }
      ],
      "name": "OwnableInvalidOwner",
      "type": "error"
    },
    {
      "inputs": [
        {
          "internalType": "address",
          "name": "account",
          "type": "address"
        }
      ],
      "name": "OwnableUnauthorizedAccount",
      "type": "error"
    },
    {
      "inputs": [],
      "name": "UUPSUnauthorizedCallContext",
      "type": "error"
    },
    {
      "inputs": [
        {
          "internalType": "bytes32",
          "name": "slot",
          "type": "bytes32"
        }
      ],
      "name": "UUPSUnsupportedProxiableUUID",
      "type": "error"
    },
    {
      "anonymous": false,
      "inputs": [
        {
          "indexed": true,
          "internalType": "uint256",
          "name": "auctionId",
          "type": "uint256"
        },
        {
          "indexed": true,
          "internalType": "address",
          "name": "seller",
          "type": "address"
        },
        {
          "indexed": true,
          "internalType": "address",
          "name": "nftContract",
          "type": "address"
        },
        {
          "indexed": false,
          "internalType": "uint256",
          "name": "tokenId",
          "type": "uint256"
        },
        {
          "indexed": false,
          "internalType": "uint256",
          "name": "startPrice",
          "type": "uint256"
        },
        {
          "indexed": false,
          "internalType": "uint256",
          "name": "endTimestamp",
          "type": "uint256"
        }
      ],
      "name": "AuctionCreated",
      "type": "event"
    },
    {
      "anonymous": false,
      "inputs": [
        {
          "indexed": true,
          "internalType": "uint256",
          "name": "auctionId",
          "type": "uint256"
        },
        {
          "indexed": true,
          "internalType": "address",
          "name": "winner",
          "type": "address"
        },
        {
          "indexed": false,
          "internalType": "uint256",
          "name": "highestBid",
          "type": "uint256"
        }
      ],
      "name": "AuctionEnded",
      "type": "event"
    },
    {
      "anonymous": false,
      "inputs": [
        {
          "indexed": true,
          "internalType": "uint256",
          "name": "auctionId",
          "type": "uint256"
        },
        {
          "indexed": true,
          "internalType": "address",
          "name": "bidder",
          "type": "address"
        },
        {
          "indexed": false,
          "internalType": "uint256",
          "name": "amount",
          "type": "uint256"
        }
      ],
      "name": "BidPlaced",
      "type": "event"
    },
    {
      "anonymous": false,
      "inputs": [
        {
          "indexed": false,
          "internalType": "uint64",
          "name": "version",
          "type": "uint64"
        }
      ],
      "name": "Initialized",
      "type": "event"
    },
    {
      "anonymous": false,
      "inputs": [
        {
          "indexed": true,
          "internalType": "address",
          "name": "previousOwner",
          "type": "address"
        },
        {
          "indexed": true,
          "internalType": "address",
          "name": "newOwner",
          "type": "address"
        }
      ],
      "name": "OwnershipTransferred",
      "type": "event"
    },
    {
      "anonymous": false,
      "inputs": [
        {
          "indexed": true,
          "internalType": "address",
          "name": "implementation",
          "type": "address"
        }
      ],
      "name": "Upgraded",
      "type": "event"
    },
    {
      "inputs": [],
      "name": "UPGRADE_INTERFACE_VERSION",
      "outputs": [
        {
          "internalType": "string",
          "name": "",
          "type": "string"
        }
      ],
      "stateMutability": "view",
      "type": "function"
    },
    {
      "inputs": [
        {
          "internalType": "uint256",
          "name": "",
          "type": "uint256"
        }
      ],
      "name": "auctions",
      "outputs": [
        {
          "internalType": "uint256",
          "name": "auctionId",
          "type": "uint256"
        },
        {
          "internalType": "address",
          "name": "seller",
          "type": "address"
        },
        {
          "internalType": "contract IERC721",
          "name": "nftContract",
          "type": "address"
        },
        {
          "internalType": "uint256",
          "name": "tokenId",
          "type": "uint256"
        },
        {
          "internalType": "uint256",
          "name": "startPrice",
          "type": "uint256"
        },
        {
          "internalType": "uint256",
          "name": "endTimestamp",
          "type": "uint256"
        },
        {
          "internalType": "uint256",
          "name": "highestBid",
          "type": "uint256"
        },
        {
          "internalType": "address",
          "name": "highestBidder",
          "type": "address"
        },
        {
          "internalType": "uint8",
          "name": "highestBidCurrency",
          "type": "uint8"
        },
        {
          "internalType": "address",
          "name": "erc20TokenAddress",
          "type": "address"
        },
        {
          "internalType": "uint256",
          "name": "highestBidInUsd",
          "type": "uint256"
        },
        {
          "internalType": "bool",
          "name": "ended",
          "type": "bool"
        }
      ],
      "stateMutability": "view",
      "type": "function"
    },
    {
      "inputs": [
        {
          "internalType": "contract IERC721",
          "name": "_nftContract",
          "type": "address"
        },
        {
          "internalType": "uint256",
          "name": "_tokenId",
          "type": "uint256"
        },
        {
          "internalType": "uint256",
          "name": "_startPrice",
          "type": "uint256"
        },
        {
          "internalType": "uint8",
          "name": "_startPriceCurrency",
          "type": "uint8"
        },
        {
          "internalType": "address",
          "name": "_erc20TokenAddress",
          "type": "address"
        },
        {
          "internalType": "uint256",
          "name": "_duration",
          "type": "uint256"
        }
      ],
      "name": "createAuction",
      "outputs": [],
      "stateMutability": "nonpayable",
      "type": "function"
    },
    {
      "inputs": [
        {
          "internalType": "uint256",
          "name": "_auctionId",
          "type": "uint256"
        }
      ],
      "name": "endAuction",
      "outputs": [],
      "stateMutability": "nonpayable",
      "type": "function"
    },
    {
      "inputs": [],
      "name": "ethUsdPriceFeed",
      "outputs": [
        {
          "internalType": "contract AggregatorV3Interface",
          "name": "",
          "type": "address"
        }
      ],
      "stateMutability": "view",
      "type": "function"
    },
    {
      "inputs": [
        {
          "internalType": "address",
          "name": "_tokenAddress",
          "type": "address"
        }
      ],
      "name": "getLatestPrice",
      "outputs": [
        {
          "internalType": "int256",
          "name": "",
          "type": "int256"
        }
      ],
      "stateMutability": "view",
      "type": "function"
    },
    {
      "inputs": [
        {
          "internalType": "address",
          "name": "owner",
          "type": "address"
        }
      ],
      "name": "initialize",
      "outputs": [],
      "stateMutability": "nonpayable",
      "type": "function"
    },
    {
      "inputs": [],
      "name": "owner",
      "outputs": [
        {
          "internalType": "address",
          "name": "",
          "type": "address"
        }
      ],
      "stateMutability": "view",
      "type": "function"
    },
    {
      "inputs": [
        {
          "internalType": "uint256",
          "name": "_auctionId",
          "type": "uint256"
        }
      ],
      "name": "placeBid",
      "outputs": [],
      "stateMutability": "payable",
      "type": "function"
    },
    {
      "inputs": [
        {
          "internalType": "uint256",
          "name": "_auctionId",
          "type": "uint256"
        },
        {
          "internalType": "uint256",
          "name": "_amount",
          "type": "uint256"
        },
        {
          "internalType": "address",
          "name": "_erc20TokenAddress",
          "type": "address"
        }
      ],
      "name": "placeBidERC20",
      "outputs": [],
      "stateMutability": "nonpayable",
      "type": "function"
    },
    {
      "inputs": [
        {
          "internalType": "address",
          "name": "",
          "type": "address"
        }
      ],
      "name": "priceFeeds",
      "outputs": [
        {
          "internalType": "contract AggregatorV3Interface",
          "name": "",
          "type": "address"
        }
      ],
      "stateMutability": "view",
      "type": "function"
    },
    {
      "inputs": [],
      "name": "proxiableUUID",
      "outputs": [
        {
          "internalType": "bytes32",
          "name": "",
          "type": "bytes32"
        }
      ],
      "stateMutability": "view",
      "type": "function"
    },
    {
      "inputs": [],
      "name": "renounceOwnership",
      "outputs": [],
      "stateMutability": "nonpayable",
      "type": "function"
    },
    {
      "inputs": [
        {
          "internalType": "address",
          "name": "_priceFeedAddress",
          "type": "address"
        }
      ],
      "name": "setEthUsdPriceFeed",
      "outputs": [],
      "stateMutability": "nonpayable",
      "type": "function"
    },
    {
      "inputs": [
        {
          "internalType": "address",
          "name": "_tokenAddress",
          "type": "address"
        },
        {
          "internalType": "address",
          "name": "_priceFeedAddress",
          "type": "address"
        }
      ],
      "name": "setPriceFeed",
      "outputs": [],
      "stateMutability": "nonpayable",
      "type": "function"
    },
    {
      "inputs": [
        {
          "internalType": "address",
          "name": "newOwner",
          "type": "address"
        }
      ],
      "name": "transferOwnership",
      "outputs": [],
      "stateMutability": "nonpayable",
      "type": "function"
    },
    {
      "inputs": [
        {
          "internalType": "address",
          "name": "newImplementation",
          "type": "address"
        },
        {
          "internalType": "bytes",
          "name": "data",
          "type": "bytes"
        }
      ],
      "name": "upgradeToAndCall",
      "outputs": [],
      "stateMutability": "payable",
      "type": "function"
    }
  ],
  "bytecode": "0x60a06040523073ffffffffffffffffffffffffffffffffffffffff1660809073ffffffffffffffffffffffffffffffffffffffff168152503480156200004457600080fd5b50620000556200005b60201b60201c565b620001ee565b60006200006d6200016560201b60201c565b90508060000160089054906101000a900460ff1615620000b9576040517ff92ee8a900000000000000000000000000000000000000000000000000000000815260040160405180910390fd5b67ffffffffffffffff80168160000160009054906101000a900467ffffffffffffffff1667ffffffffffffffff1614620001625767ffffffffffffffff8160000160006101000a81548167ffffffffffffffff021916908367ffffffffffffffff1602179055507fc7f505b2f371ae2175ee4913f4499e1f2633a7b5936321eed1cdaeb6115181d267ffffffffffffffff604051620001599190620001d1565b60405180910390a15b50565b600080620001786200018160201b60201c565b90508091505090565b60007ff0c57e16840df040f15088dc2f81fe391c3923bec73e23a9662efc9c229c6a0060001b905090565b600067ffffffffffffffff82169050919050565b620001cb81620001ac565b82525050565b6000602082019050620001e86000830184620001c0565b92915050565b6080516136c46200021860003960008181611e1201528181611e67015261202201526136c46000f3fe6080604052600436106100fe5760003560e01c80638da5cb5b11610095578063ad3cb1cc11610064578063ad3cb1cc14610310578063b9a2de3a1461033b578063c4d66de814610364578063e293dcbf1461038d578063f2fde38b146103b6576100fe565b80638da5cb5b146102635780639979ef451461028e5780639dcb511a146102aa578063ad183739146102e7576100fe565b806352d1902d116100d157806352d1902d146101b0578063571a26a0146101db578063715018a61461022357806376e112861461023a576100fe565b806316345f1814610103578063407f03f71461014057806342f6fb29146101695780634f1ef28614610194575b600080fd5b34801561010f57600080fd5b5061012a60048036038101906101259190612729565b6103df565b604051610137919061276f565b60405180910390f35b34801561014c57600080fd5b5061016760048036038101906101629190612837565b6104c4565b005b34801561017557600080fd5b5061017e61094a565b60405161018b9190612923565b60405180910390f35b6101ae60048036038101906101a99190612a84565b610970565b005b3480156101bc57600080fd5b506101c561098f565b6040516101d29190612af9565b60405180910390f35b3480156101e757600080fd5b5061020260048036038101906101fd9190612b14565b6109c2565b60405161021a9c9b9a99989796959493929190612baa565b60405180910390f35b34801561022f57600080fd5b50610238610abc565b005b34801561024657600080fd5b50610261600480360381019061025c9190612c64565b610ad0565b005b34801561026f57600080fd5b50610278610b51565b6040516102859190612ca4565b60405180910390f35b6102a860048036038101906102a39190612b14565b610b89565b005b3480156102b657600080fd5b506102d160048036038101906102cc9190612729565b610f96565b6040516102de9190612923565b60405180910390f35b3480156102f357600080fd5b5061030e60048036038101906103099190612cbf565b610fc9565b005b34801561031c57600080fd5b506103256114c6565b6040516103329190612d91565b60405180910390f35b34801561034757600080fd5b50610362600480360381019061035d9190612b14565b6114ff565b005b34801561037057600080fd5b5061038b60048036038101906103869190612729565b6119be565b005b34801561039957600080fd5b506103b460048036038101906103af9190612729565b611b5d565b005b3480156103c257600080fd5b506103dd60048036038101906103d89190612729565b611ba1565b005b6000806000808473ffffffffffffffffffffffffffffffffffffffff1673ffffffffffffffffffffffffffffffffffffffff16815260200190815260200160002060009054906101000a900473ffffffffffffffffffffffffffffffffffffffff16905060008173ffffffffffffffffffffffffffffffffffffffff1663feaf968c6040518163ffffffff1660e01b815260040160a060405180830381865afa158015610490573d6000803e3d6000fd5b505050506040513d601f19601f820116820180604052508101906104b49190612e36565b5050509150508092505050919050565b60008411610507576040517f08c379a00000000000000000000000000000000000000000000000000000000081526004016104fe90612f23565b60405180910390fd5b6000811161054a576040517f08c379a000000000000000000000000000000000000000000000000000000000815260040161054190612f8f565b60405180910390fd5b60018360ff16036105c557600073ffffffffffffffffffffffffffffffffffffffff168273ffffffffffffffffffffffffffffffffffffffff16036105c4576040517f08c379a00000000000000000000000000000000000000000000000000000000081526004016105bb90613021565b60405180910390fd5b5b8573ffffffffffffffffffffffffffffffffffffffff166323b872dd3330886040518463ffffffff1660e01b815260040161060293929190613041565b600060405180830381600087803b15801561061c57600080fd5b505af1158015610630573d6000803e3d6000fd5b5050505060036000815480929190610647906130a7565b9190505550600060035490506040518061018001604052808281526020013373ffffffffffffffffffffffffffffffffffffffff1681526020018873ffffffffffffffffffffffffffffffffffffffff16815260200187815260200186815260200183426106b591906130ef565b8152602001868152602001600073ffffffffffffffffffffffffffffffffffffffff1681526020018560ff1681526020018473ffffffffffffffffffffffffffffffffffffffff16815260200161070d858888611c27565b815260200160001515815250600260008381526020019081526020016000206000820151816000015560208201518160010160006101000a81548173ffffffffffffffffffffffffffffffffffffffff021916908373ffffffffffffffffffffffffffffffffffffffff16021790555060408201518160020160006101000a81548173ffffffffffffffffffffffffffffffffffffffff021916908373ffffffffffffffffffffffffffffffffffffffff160217905550606082015181600301556080820151816004015560a0820151816005015560c0820151816006015560e08201518160070160006101000a81548173ffffffffffffffffffffffffffffffffffffffff021916908373ffffffffffffffffffffffffffffffffffffffff1602179055506101008201518160070160146101000a81548160ff021916908360ff1602179055506101208201518160080160006101000a81548173ffffffffffffffffffffffffffffffffffffffff021916908373ffffffffffffffffffffffffffffffffffffffff160217905550610140820151816009015561016082015181600a0160006101000a81548160ff0219169083151502179055509050508673ffffffffffffffffffffffffffffffffffffffff163373ffffffffffffffffffffffffffffffffffffffff16827f06b9e486c68303eb64052e0493f906f3d93a1b7149b6b8dcff221aebd16c35138989874261092a91906130ef565b60405161093993929190613123565b60405180910390a450505050505050565b600160009054906101000a900473ffffffffffffffffffffffffffffffffffffffff1681565b610978611e10565b61098182611ef6565b61098b8282611f01565b5050565b6000610999612020565b7f360894a13ba1a3210667c828492db98dca3e2076cc3735a920a3ca505d382bbc60001b905090565b60026020528060005260406000206000915090508060000154908060010160009054906101000a900473ffffffffffffffffffffffffffffffffffffffff16908060020160009054906101000a900473ffffffffffffffffffffffffffffffffffffffff16908060030154908060040154908060050154908060060154908060070160009054906101000a900473ffffffffffffffffffffffffffffffffffffffff16908060070160149054906101000a900460ff16908060080160009054906101000a900473ffffffffffffffffffffffffffffffffffffffff169080600901549080600a0160009054906101000a900460ff1690508c565b610ac46120a7565b610ace600061212e565b565b806000808473ffffffffffffffffffffffffffffffffffffffff1673ffffffffffffffffffffffffffffffffffffffff16815260200190815260200160002060006101000a81548173ffffffffffffffffffffffffffffffffffffffff021916908373ffffffffffffffffffffffffffffffffffffffff1602179055505050565b600080610b5c612205565b90508060000160009054906101000a900473ffffffffffffffffffffffffffffffffffffffff1691505090565b60006002600083815260200190815260200160002090506000816000015403610be7576040517f08c379a0000000000000000000000000000000000000000000000000000000008152600401610bde906131a6565b60405180910390fd5b80600a0160009054906101000a900460ff1615610c39576040517f08c379a0000000000000000000000000000000000000000000000000000000008152600401610c3090613212565b60405180910390fd5b80600501544210610c7f576040517f08c379a0000000000000000000000000000000000000000000000000000000008152600401610c7690613212565b60405180910390fd5b6000610c8e6000346000611c27565b905081600901548111610cd6576040517f08c379a0000000000000000000000000000000000000000000000000000000008152600401610ccd906132a4565b60405180910390fd5b600073ffffffffffffffffffffffffffffffffffffffff168260070160009054906101000a900473ffffffffffffffffffffffffffffffffffffffff1673ffffffffffffffffffffffffffffffffffffffff1614610e8b5760008260070160149054906101000a900460ff1660ff1603610dbe578160070160009054906101000a900473ffffffffffffffffffffffffffffffffffffffff1673ffffffffffffffffffffffffffffffffffffffff166108fc83600601549081150290604051600060405180830381858888f19350505050158015610db8573d6000803e3d6000fd5b50610e8a565b8160080160009054906101000a900473ffffffffffffffffffffffffffffffffffffffff1673ffffffffffffffffffffffffffffffffffffffff1663a9059cbb8360070160009054906101000a900473ffffffffffffffffffffffffffffffffffffffff1684600601546040518363ffffffff1660e01b8152600401610e459291906132c4565b6020604051808303816000875af1158015610e64573d6000803e3d6000fd5b505050506040513d601f19601f82011682018060405250810190610e889190613319565b505b5b348260060181905550338260070160006101000a81548173ffffffffffffffffffffffffffffffffffffffff021916908373ffffffffffffffffffffffffffffffffffffffff16021790555060008260070160146101000a81548160ff021916908360ff16021790555060008260080160006101000a81548173ffffffffffffffffffffffffffffffffffffffff021916908373ffffffffffffffffffffffffffffffffffffffff1602179055508082600901819055503373ffffffffffffffffffffffffffffffffffffffff16837f0e54eff26401bf69b81b26f60bd85ef47f5d85275c1d268d84f68d6897431c4734604051610f899190613346565b60405180910390a3505050565b60006020528060005260406000206000915054906101000a900473ffffffffffffffffffffffffffffffffffffffff1681565b60006002600085815260200190815260200160002090506000816000015403611027576040517f08c379a000000000000000000000000000000000000000000000000000000000815260040161101e906131a6565b60405180910390fd5b80600a0160009054906101000a900460ff1615611079576040517f08c379a000000000000000000000000000000000000000000000000000000000815260040161107090613212565b60405180910390fd5b806005015442106110bf576040517f08c379a00000000000000000000000000000000000000000000000000000000081526004016110b690613212565b60405180910390fd5b600073ffffffffffffffffffffffffffffffffffffffff168273ffffffffffffffffffffffffffffffffffffffff160361112e576040517f08c379a000000000000000000000000000000000000000000000000000000000815260040161112590613021565b60405180910390fd5b600061113c83856001611c27565b905081600901548111611184576040517f08c379a000000000000000000000000000000000000000000000000000000000815260040161117b906132a4565b60405180910390fd5b8273ffffffffffffffffffffffffffffffffffffffff166323b872dd3330876040518463ffffffff1660e01b81526004016111c193929190613041565b6020604051808303816000875af11580156111e0573d6000803e3d6000fd5b505050506040513d601f19601f820116820180604052508101906112049190613319565b50600073ffffffffffffffffffffffffffffffffffffffff168260070160009054906101000a900473ffffffffffffffffffffffffffffffffffffffff1673ffffffffffffffffffffffffffffffffffffffff16146113ba5760008260070160149054906101000a900460ff1660ff16036112ed578160070160009054906101000a900473ffffffffffffffffffffffffffffffffffffffff1673ffffffffffffffffffffffffffffffffffffffff166108fc83600601549081150290604051600060405180830381858888f193505050501580156112e7573d6000803e3d6000fd5b506113b9565b8160080160009054906101000a900473ffffffffffffffffffffffffffffffffffffffff1673ffffffffffffffffffffffffffffffffffffffff1663a9059cbb8360070160009054906101000a900473ffffffffffffffffffffffffffffffffffffffff1684600601546040518363ffffffff1660e01b81526004016113749291906132c4565b6020604051808303816000875af1158015611393573d6000803e3d6000fd5b505050506040513d601f19601f820116820180604052508101906113b79190613319565b505b5b838260060181905550338260070160006101000a81548173ffffffffffffffffffffffffffffffffffffffff021916908373ffffffffffffffffffffffffffffffffffffffff16021790555060018260070160146101000a81548160ff021916908360ff160217905550828260080160006101000a81548173ffffffffffffffffffffffffffffffffffffffff021916908373ffffffffffffffffffffffffffffffffffffffff1602179055508082600901819055503373ffffffffffffffffffffffffffffffffffffffff16857f0e54eff26401bf69b81b26f60bd85ef47f5d85275c1d268d84f68d6897431c47866040516114b79190613346565b60405180910390a35050505050565b6040518060400160405280600581526020017f352e302e3000000000000000000000000000000000000000000000000000000081525081565b6000600260008381526020019081526020016000209050600081600001540361155d576040517f08c379a0000000000000000000000000000000000000000000000000000000008152600401611554906131a6565b60405180910390fd5b80600a0160009054906101000a900460ff16156115af576040517f08c379a00000000000000000000000000000000000000000000000000000000081526004016115a690613212565b60405180910390fd5b80600501544210156115f6576040517f08c379a00000000000000000000000000000000000000000000000000000000081526004016115ed906133ad565b60405180910390fd5b600181600a0160006101000a81548160ff021916908315150217905550600073ffffffffffffffffffffffffffffffffffffffff168160070160009054906101000a900473ffffffffffffffffffffffffffffffffffffffff1673ffffffffffffffffffffffffffffffffffffffff1614611887578060020160009054906101000a900473ffffffffffffffffffffffffffffffffffffffff1673ffffffffffffffffffffffffffffffffffffffff166323b872dd308360070160009054906101000a900473ffffffffffffffffffffffffffffffffffffffff1684600301546040518463ffffffff1660e01b81526004016116f493929190613041565b600060405180830381600087803b15801561170e57600080fd5b505af1158015611722573d6000803e3d6000fd5b5050505060008160070160149054906101000a900460ff1660ff16036117b6578060010160009054906101000a900473ffffffffffffffffffffffffffffffffffffffff1673ffffffffffffffffffffffffffffffffffffffff166108fc82600601549081150290604051600060405180830381858888f193505050501580156117b0573d6000803e3d6000fd5b50611882565b8060080160009054906101000a900473ffffffffffffffffffffffffffffffffffffffff1673ffffffffffffffffffffffffffffffffffffffff1663a9059cbb8260010160009054906101000a900473ffffffffffffffffffffffffffffffffffffffff1683600601546040518363ffffffff1660e01b815260040161183d9291906132c4565b6020604051808303816000875af115801561185c573d6000803e3d6000fd5b505050506040513d601f19601f820116820180604052508101906118809190613319565b505b611943565b8060020160009054906101000a900473ffffffffffffffffffffffffffffffffffffffff1673ffffffffffffffffffffffffffffffffffffffff166323b872dd308360010160009054906101000a900473ffffffffffffffffffffffffffffffffffffffff1684600301546040518463ffffffff1660e01b815260040161191093929190613041565b600060405180830381600087803b15801561192a57600080fd5b505af115801561193e573d6000803e3d6000fd5b505050505b8060070160009054906101000a900473ffffffffffffffffffffffffffffffffffffffff1673ffffffffffffffffffffffffffffffffffffffff16827fd2aa34a4fdbbc6dff6a3e56f46e0f3ae2a31d7785ff3487aa5c95c642acea50183600601546040516119b29190613346565b60405180910390a35050565b60006119c861222d565b905060008160000160089054906101000a900460ff1615905060008260000160009054906101000a900467ffffffffffffffff1690506000808267ffffffffffffffff16148015611a165750825b9050600060018367ffffffffffffffff16148015611a4b575060003073ffffffffffffffffffffffffffffffffffffffff163b145b905081158015611a59575080155b15611a90576040517ff92ee8a900000000000000000000000000000000000000000000000000000000815260040160405180910390fd5b60018560000160006101000a81548167ffffffffffffffff021916908367ffffffffffffffff1602179055508315611ae05760018560000160086101000a81548160ff0219169083151502179055505b611ae986612241565b611af1612255565b611af961225f565b8315611b555760008560000160086101000a81548160ff0219169083151502179055507fc7f505b2f371ae2175ee4913f4499e1f2633a7b5936321eed1cdaeb6115181d26001604051611b4c919061341c565b60405180910390a15b505050505050565b80600160006101000a81548173ffffffffffffffffffffffffffffffffffffffff021916908373ffffffffffffffffffffffffffffffffffffffff16021790555050565b611ba96120a7565b600073ffffffffffffffffffffffffffffffffffffffff168173ffffffffffffffffffffffffffffffffffffffff1603611c1b5760006040517f1e4fbdf7000000000000000000000000000000000000000000000000000000008152600401611c129190612ca4565b60405180910390fd5b611c248161212e565b50565b60008060008360ff1603611c5f57600160009054906101000a900473ffffffffffffffffffffffffffffffffffffffff169050611cc1565b6000808673ffffffffffffffffffffffffffffffffffffffff1673ffffffffffffffffffffffffffffffffffffffff16815260200190815260200160002060009054906101000a900473ffffffffffffffffffffffffffffffffffffffff1690505b600073ffffffffffffffffffffffffffffffffffffffff168173ffffffffffffffffffffffffffffffffffffffff1603611d30576040517f08c379a0000000000000000000000000000000000000000000000000000000008152600401611d2790613483565b60405180910390fd5b60008173ffffffffffffffffffffffffffffffffffffffff1663feaf968c6040518163ffffffff1660e01b815260040160a060405180830381865afa158015611d7d573d6000803e3d6000fd5b505050506040513d601f19601f82011682018060405250810190611da19190612e36565b50505091505060008113611dea576040517f08c379a0000000000000000000000000000000000000000000000000000000008152600401611de190613515565b60405180910390fd5b6305f5e1008186611dfb9190613535565b611e0591906135a6565b925050509392505050565b7f000000000000000000000000000000000000000000000000000000000000000073ffffffffffffffffffffffffffffffffffffffff163073ffffffffffffffffffffffffffffffffffffffff161480611ebd57507f000000000000000000000000000000000000000000000000000000000000000073ffffffffffffffffffffffffffffffffffffffff16611ea4612269565b73ffffffffffffffffffffffffffffffffffffffff1614155b15611ef4576040517fe07c8dba00000000000000000000000000000000000000000000000000000000815260040160405180910390fd5b565b611efe6120a7565b50565b8173ffffffffffffffffffffffffffffffffffffffff166352d1902d6040518163ffffffff1660e01b8152600401602060405180830381865afa925050508015611f6957506040513d601f19601f82011682018060405250810190611f669190613603565b60015b611faa57816040517f4c9c8ce3000000000000000000000000000000000000000000000000000000008152600401611fa19190612ca4565b60405180910390fd5b7f360894a13ba1a3210667c828492db98dca3e2076cc3735a920a3ca505d382bbc60001b811461201157806040517faa1d49a40000000000000000000000000000000000000000000000000000000081526004016120089190612af9565b60405180910390fd5b61201b83836122c0565b505050565b7f000000000000000000000000000000000000000000000000000000000000000073ffffffffffffffffffffffffffffffffffffffff163073ffffffffffffffffffffffffffffffffffffffff16146120a5576040517fe07c8dba00000000000000000000000000000000000000000000000000000000815260040160405180910390fd5b565b6120af612333565b73ffffffffffffffffffffffffffffffffffffffff166120cd610b51565b73ffffffffffffffffffffffffffffffffffffffff161461212c576120f0612333565b6040517f118cdaa70000000000000000000000000000000000000000000000000000000081526004016121239190612ca4565b60405180910390fd5b565b6000612138612205565b905060008160000160009054906101000a900473ffffffffffffffffffffffffffffffffffffffff169050828260000160006101000a81548173ffffffffffffffffffffffffffffffffffffffff021916908373ffffffffffffffffffffffffffffffffffffffff1602179055508273ffffffffffffffffffffffffffffffffffffffff168173ffffffffffffffffffffffffffffffffffffffff167f8be0079c531659141344cd1fd0a4f28419497f9722a3daafe3b4186f6b6457e060405160405180910390a3505050565b60007f9016d09d72d40fdae2fd8ceac6b6234c7706214fd39c1cd1e609a0528c199300905090565b60008061223861233b565b90508091505090565b612249612366565b612252816123a6565b50565b61225d612366565b565b6000600381905550565b60006122977f360894a13ba1a3210667c828492db98dca3e2076cc3735a920a3ca505d382bbc60001b61242c565b60000160009054906101000a900473ffffffffffffffffffffffffffffffffffffffff16905090565b6122c982612436565b8173ffffffffffffffffffffffffffffffffffffffff167fbc7cd75a20ee27fd9adebab32041f755214dbc6bffa90cc0225b39da2e5c2d3b60405160405180910390a2600081511115612326576123208282612503565b5061232f565b61232e612587565b5b5050565b600033905090565b60007ff0c57e16840df040f15088dc2f81fe391c3923bec73e23a9662efc9c229c6a0060001b905090565b61236e6125c4565b6123a4576040517fd7e6bcf800000000000000000000000000000000000000000000000000000000815260040160405180910390fd5b565b6123ae612366565b600073ffffffffffffffffffffffffffffffffffffffff168173ffffffffffffffffffffffffffffffffffffffff16036124205760006040517f1e4fbdf70000000000000000000000000000000000000000000000000000000081526004016124179190612ca4565b60405180910390fd5b6124298161212e565b50565b6000819050919050565b60008173ffffffffffffffffffffffffffffffffffffffff163b0361249257806040517f4c9c8ce30000000000000000000000000000000000000000000000000000000081526004016124899190612ca4565b60405180910390fd5b806124bf7f360894a13ba1a3210667c828492db98dca3e2076cc3735a920a3ca505d382bbc60001b61242c565b60000160006101000a81548173ffffffffffffffffffffffffffffffffffffffff021916908373ffffffffffffffffffffffffffffffffffffffff16021790555050565b60606000808473ffffffffffffffffffffffffffffffffffffffff168460405161252d9190613677565b600060405180830381855af49150503d8060008114612568576040519150601f19603f3d011682016040523d82523d6000602084013e61256d565b606091505b509150915061257d8583836125e4565b9250505092915050565b60003411156125c2576040517fb398979f00000000000000000000000000000000000000000000000000000000815260040160405180910390fd5b565b60006125ce61222d565b60000160089054906101000a900460ff16905090565b6060826125f9576125f482612673565b61266b565b60008251148015612621575060008473ffffffffffffffffffffffffffffffffffffffff163b145b1561266357836040517f9996b31500000000000000000000000000000000000000000000000000000000815260040161265a9190612ca4565b60405180910390fd5b81905061266c565b5b9392505050565b60008151111561268557805160208201fd5b6040517fd6bda27500000000000000000000000000000000000000000000000000000000815260040160405180910390fd5b6000604051905090565b600080fd5b600080fd5b600073ffffffffffffffffffffffffffffffffffffffff82169050919050565b60006126f6826126cb565b9050919050565b612706816126eb565b811461271157600080fd5b50565b600081359050612723816126fd565b92915050565b60006020828403121561273f5761273e6126c1565b5b600061274d84828501612714565b91505092915050565b6000819050919050565b61276981612756565b82525050565b60006020820190506127846000830184612760565b92915050565b6000612795826126eb565b9050919050565b6127a58161278a565b81146127b057600080fd5b50565b6000813590506127c28161279c565b92915050565b6000819050919050565b6127db816127c8565b81146127e657600080fd5b50565b6000813590506127f8816127d2565b92915050565b600060ff82169050919050565b612814816127fe565b811461281f57600080fd5b50565b6000813590506128318161280b565b92915050565b60008060008060008060c08789031215612854576128536126c1565b5b600061286289828a016127b3565b965050602061287389828a016127e9565b955050604061288489828a016127e9565b945050606061289589828a01612822565b93505060806128a689828a01612714565b92505060a06128b789828a016127e9565b9150509295509295509295565b6000819050919050565b60006128e96128e46128df846126cb565b6128c4565b6126cb565b9050919050565b60006128fb826128ce565b9050919050565b600061290d826128f0565b9050919050565b61291d81612902565b82525050565b60006020820190506129386000830184612914565b92915050565b600080fd5b600080fd5b6000601f19601f8301169050919050565b7f4e487b7100000000000000000000000000000000000000000000000000000000600052604160045260246000fd5b61299182612948565b810181811067ffffffffffffffff821117156129b0576129af612959565b5b80604052505050565b60006129c36126b7565b90506129cf8282612988565b919050565b600067ffffffffffffffff8211156129ef576129ee612959565b5b6129f882612948565b9050602081019050919050565b82818337600083830152505050565b6000612a27612a22846129d4565b6129b9565b905082815260208101848484011115612a4357612a42612943565b5b612a4e848285612a05565b509392505050565b600082601f830112612a6b57612a6a61293e565b5b8135612a7b848260208601612a14565b91505092915050565b60008060408385031215612a9b57612a9a6126c1565b5b6000612aa985828601612714565b925050602083013567ffffffffffffffff811115612aca57612ac96126c6565b5b612ad685828601612a56565b9150509250929050565b6000819050919050565b612af381612ae0565b82525050565b6000602082019050612b0e6000830184612aea565b92915050565b600060208284031215612b2a57612b296126c1565b5b6000612b38848285016127e9565b91505092915050565b612b4a816127c8565b82525050565b612b59816126eb565b82525050565b6000612b6a826128f0565b9050919050565b612b7a81612b5f565b82525050565b612b89816127fe565b82525050565b60008115159050919050565b612ba481612b8f565b82525050565b600061018082019050612bc0600083018f612b41565b612bcd602083018e612b50565b612bda604083018d612b71565b612be7606083018c612b41565b612bf4608083018b612b41565b612c0160a083018a612b41565b612c0e60c0830189612b41565b612c1b60e0830188612b50565b612c29610100830187612b80565b612c37610120830186612b50565b612c45610140830185612b41565b612c53610160830184612b9b565b9d9c50505050505050505050505050565b60008060408385031215612c7b57612c7a6126c1565b5b6000612c8985828601612714565b9250506020612c9a85828601612714565b9150509250929050565b6000602082019050612cb96000830184612b50565b92915050565b600080600060608486031215612cd857612cd76126c1565b5b6000612ce6868287016127e9565b9350506020612cf7868287016127e9565b9250506040612d0886828701612714565b9150509250925092565b600081519050919050565b600082825260208201905092915050565b60005b83811015612d4c578082015181840152602081019050612d31565b60008484015250505050565b6000612d6382612d12565b612d6d8185612d1d565b9350612d7d818560208601612d2e565b612d8681612948565b840191505092915050565b60006020820190508181036000830152612dab8184612d58565b905092915050565b600069ffffffffffffffffffff82169050919050565b612dd281612db3565b8114612ddd57600080fd5b50565b600081519050612def81612dc9565b92915050565b612dfe81612756565b8114612e0957600080fd5b50565b600081519050612e1b81612df5565b92915050565b600081519050612e30816127d2565b92915050565b600080600080600060a08688031215612e5257612e516126c1565b5b6000612e6088828901612de0565b9550506020612e7188828901612e0c565b9450506040612e8288828901612e21565b9350506060612e9388828901612e21565b9250506080612ea488828901612de0565b9150509295509295909350565b7f5374617274207072696365206d7573742062652067726561746572207468616e60008201527f2030000000000000000000000000000000000000000000000000000000000000602082015250565b6000612f0d602283612d1d565b9150612f1882612eb1565b604082019050919050565b60006020820190508181036000830152612f3c81612f00565b9050919050565b7f4475726174696f6e206d7573742062652067726561746572207468616e203000600082015250565b6000612f79601f83612d1d565b9150612f8482612f43565b602082019050919050565b60006020820190508181036000830152612fa881612f6c565b9050919050565b7f455243323020746f6b656e20616464726573732063616e6e6f74206265207a6560008201527f726f000000000000000000000000000000000000000000000000000000000000602082015250565b600061300b602283612d1d565b915061301682612faf565b604082019050919050565b6000602082019050818103600083015261303a81612ffe565b9050919050565b60006060820190506130566000830186612b50565b6130636020830185612b50565b6130706040830184612b41565b949350505050565b7f4e487b7100000000000000000000000000000000000000000000000000000000600052601160045260246000fd5b60006130b2826127c8565b91507fffffffffffffffffffffffffffffffffffffffffffffffffffffffffffffffff82036130e4576130e3613078565b5b600182019050919050565b60006130fa826127c8565b9150613105836127c8565b925082820190508082111561311d5761311c613078565b5b92915050565b60006060820190506131386000830186612b41565b6131456020830185612b41565b6131526040830184612b41565b949350505050565b7f41756374696f6e20646f6573206e6f7420657869737400000000000000000000600082015250565b6000613190601683612d1d565b915061319b8261315a565b602082019050919050565b600060208201905081810360008301526131bf81613183565b9050919050565b7f41756374696f6e2068617320656e646564000000000000000000000000000000600082015250565b60006131fc601183612d1d565b9150613207826131c6565b602082019050919050565b6000602082019050818103600083015261322b816131ef565b9050919050565b7f426964206d75737420626520686967686572207468616e2063757272656e742060008201527f686967686573742062696420696e205553440000000000000000000000000000602082015250565b600061328e603283612d1d565b915061329982613232565b604082019050919050565b600060208201905081810360008301526132bd81613281565b9050919050565b60006040820190506132d96000830185612b50565b6132e66020830184612b41565b9392505050565b6132f681612b8f565b811461330157600080fd5b50565b600081519050613313816132ed565b92915050565b60006020828403121561332f5761332e6126c1565b5b600061333d84828501613304565b91505092915050565b600060208201905061335b6000830184612b41565b92915050565b7f41756374696f6e20686173206e6f7420656e6465642079657400000000000000600082015250565b6000613397601983612d1d565b91506133a282613361565b602082019050919050565b600060208201905081810360008301526133c68161338a565b9050919050565b6000819050919050565b600067ffffffffffffffff82169050919050565b60006134066134016133fc846133cd565b6128c4565b6133d7565b9050919050565b613416816133eb565b82525050565b6000602082019050613431600083018461340d565b92915050565b7f50726963652066656564206e6f7420617661696c61626c650000000000000000600082015250565b600061346d601883612d1d565b915061347882613437565b602082019050919050565b6000602082019050818103600083015261349c81613460565b9050919050565b7f507269636520666565642072657475726e656420696e76616c69642076616c7560008201527f6500000000000000000000000000000000000000000000000000000000000000602082015250565b60006134ff602183612d1d565b915061350a826134a3565b604082019050919050565b6000602082019050818103600083015261352e816134f2565b9050919050565b6000613540826127c8565b915061354b836127c8565b9250828202613559816127c8565b915082820484148315176135705761356f613078565b5b5092915050565b7f4e487b7100000000000000000000000000000000000000000000000000000000600052601260045260246000fd5b60006135b1826127c8565b91506135bc836127c8565b9250826135cc576135cb613577565b5b828204905092915050565b6135e081612ae0565b81146135eb57600080fd5b50565b6000815190506135fd816135d7565b92915050565b600060208284031215613619576136186126c1565b5b6000613627848285016135ee565b91505092915050565b600081519050919050565b600081905092915050565b600061365182613630565b61365b818561363b565b935061366b818560208601612d2e565b80840191505092915050565b60006136838284613646565b91508190509291505056fea2646970667358221220062c96445bbb0d6772e3b58d68141f486b95df79f70e12ddf7cb15f75d011f5664736f6c63430008180033",
  "linkReferences": {},
  "deployedLinkReferences": {}
}