{
  "_format": "hh-sol-artifact-1",
  "contractName": "MockV3Aggregator",
  "sourceName": "contracts/MockV3Aggregator.sol",
  "abi": [
    {
      "inputs": [
        {
          "internalType": "uint8",
          "name": "decimals_",
          "type": "uint8"
        },
        {
          "internalType": "int256",
          "name": "initialAnswer_",
          "type": "int256"
        }
      ],
      "stateMutability": "nonpayable",
      "type": "constructor"
    },
    {
      "inputs": [],
      "name": "decimals",
      "outputs": [
        {
          "internalType": "uint8",
          "name": "",
          "type": "uint8"
        }
      ],
      "stateMutability": "view",
      "type": "function"
    },
    {
      "inputs": [],
      "name": "description",
      "outputs": [
        {
          "internalType": "string",
          "name": "",
          "type": "string"
        }
      ],
      "stateMutability": "pure",
      "type": "function"
    },
    {
      "inputs": [
        {
          "internalType": "uint80",
          "name": "_roundId",
          "type": "uint80"
        }
      ],
      "name": "getRoundData",
      "outputs": [
        {
          "internalType": "uint80",
          "name": "roundId",
          "type": "uint80"
        },
        {
          "internalType": "int256",
          "name": "answer",
          "type": "int256"
        },
        {
          "internalType": "uint256",
          "name": "startedAt",
          "type": "uint256"
        },
        {
          "internalType": "uint256",
          "name": "updatedAt",
          "type": "uint256"
        },
        {
          "internalType": "uint80",
          "name": "answeredInRound",
          "type": "uint80"
        }
      ],
      "stateMutability": "view",
      "type": "function"
    },
    {
      "inputs": [],
      "name": "latestRoundData",
      "outputs": [
        {
          "internalType": "uint80",
          "name": "roundId",
          "type": "uint80"
        },
        {
          "internalType": "int256",
          "name": "answer",
          "type": "int256"
        },
        {
          "internalType": "uint256",
          "name": "startedAt",
          "type": "uint256"
        },
        {
          "internalType": "uint256",
          "name": "updatedAt",
          "type": "uint256"
        },
        {
          "internalType": "uint80",
          "name": "answeredInRound",
          "type": "uint80"
        }
      ],
      "stateMutability": "view",
      "type": "function"
    },
    {
      "inputs": [
        {
          "internalType": "int256",
          "name": "newAnswer",
          "type": "int256"
        }
      ],
      "name": "updateAnswer",
      "outputs": [],
      "stateMutability": "nonpayable",
      "type": "function"
    },
    {
      "inputs": [],
      "name": "version",
      "outputs": [
        {
          "internalType": "uint256",
          "name": "",
          "type": "uint256"
        }
      ],
      "stateMutability": "pure",
      "type": "function"
    }
  ],
  "bytecode": "0x608060405234801561001057600080fd5b50604051610594380380610594833981810160405281019061003291906100ce565b816000806101000a81548160ff021916908360ff16021790555080600181905550505061010e565b600080fd5b600060ff82169050919050565b6100758161005f565b811461008057600080fd5b50565b6000815190506100928161006c565b92915050565b6000819050919050565b6100ab81610098565b81146100b657600080fd5b50565b6000815190506100c8816100a2565b92915050565b600080604083850312156100e5576100e461005a565b5b60006100f385828601610083565b9250506020610104858286016100b9565b9150509250929050565b6104778061011d6000396000f3fe608060405234801561001057600080fd5b50600436106100625760003560e01c8063313ce5671461006757806354fd4d50146100855780637284e416146100a35780639a6fc8f5146100c1578063a87a20ce146100f5578063feaf968c14610111575b600080fd5b61006f610133565b60405161007c91906101f8565b60405180910390f35b61008d610149565b60405161009a919061022c565b60405180910390f35b6100ab610152565b6040516100b891906102d7565b60405180910390f35b6100db60048036038101906100d69190610340565b61018f565b6040516100ec959493929190610395565b60405180910390f35b61010f600480360381019061010a9190610414565b6101b1565b005b6101196101bb565b60405161012a959493929190610395565b60405180910390f35b60008060009054906101000a900460ff16905090565b60006001905090565b60606040518060400160405280601081526020017f4d6f636b563341676772656761746f7200000000000000000000000000000000815250905090565b6000806000806000856001544242899450945094509450945091939590929450565b8060018190555050565b60008060008060006001805442426001945094509450945094509091929394565b600060ff82169050919050565b6101f2816101dc565b82525050565b600060208201905061020d60008301846101e9565b92915050565b6000819050919050565b61022681610213565b82525050565b6000602082019050610241600083018461021d565b92915050565b600081519050919050565b600082825260208201905092915050565b60005b83811015610281578082015181840152602081019050610266565b60008484015250505050565b6000601f19601f8301169050919050565b60006102a982610247565b6102b38185610252565b93506102c3818560208601610263565b6102cc8161028d565b840191505092915050565b600060208201905081810360008301526102f1818461029e565b905092915050565b600080fd5b600069ffffffffffffffffffff82169050919050565b61031d816102fe565b811461032857600080fd5b50565b60008135905061033a81610314565b92915050565b600060208284031215610356576103556102f9565b5b60006103648482850161032b565b91505092915050565b610376816102fe565b82525050565b6000819050919050565b61038f8161037c565b82525050565b600060a0820190506103aa600083018861036d565b6103b76020830187610386565b6103c4604083018661021d565b6103d1606083018561021d565b6103de608083018461036d565b9695505050505050565b6103f18161037c565b81146103fc57600080fd5b50565b60008135905061040e816103e8565b92915050565b60006020828403121561042a576104296102f9565b5b6000610438848285016103ff565b9150509291505056fea26469706673582212208e8e516c9280a32834770fb8b8ca9f35fe1580c3ba4e793da32840aebb2042f064736f6c63430008180033",
  "linkReferences": {},
  "deployedLinkReferences": {}
}